:100000000C9434000C9451000C9451000C94510049
:100010000C9451000C9451000C9451000C9451001C
:100020000C9451000C9451000C9451000C9451000C
:100030000C9451000C9451000C9451000C945100FC
:100040000C9453000C9451000C9451000C945100EA
:100050000C9451000C9451000C9451000C945100DC
:100060000C9451000C94510011241FBECFEFD8E026
:10007000DEBFCDBF11E0A0E0B1E0E8E0F6E002C0F5
:1000800005900D92A231B107D9F711E0A2E1B1E0DC
:1000900001C01D92AA31B107E1F70E948C000C94B7
:1000A00002030C9400001F920F920FB60F921124BE
:1000B0008F939F9316BC809118019091190101961E
:1000C00090931901809318010197F9F41092190186
:1000D0001092180180910E0190910F01019690935A
:1000E0000F0180930E0180911001909111010196F2
:1000F000909311018093100180911401909115014A
:10010000019690931501809314019F918F910F9008
:100110000FBE0F901F9018950F931F93CF93DF93EF
:100120008FE00E944A020E94080217B818B814BC57
:1001300082E085BD80916E00816080936E00A89AF8
:10014000789401E010E086B1C82FD0E0C270D07082
:10015000C217D307C1F32097E9F180911401909160
:1001600015018157974120F0109217011092160146
:1001700010920F0110920E0181E060E00E94F401E4
:1001800080E091E00E94300281E060E00E94F40192
:1001900080911401909115010E9483028DE060E02E
:1001A0000E94F40185E091E00E9430028EE060E060
:1001B0000E94F40180E091E00E9430028EE060E055
:1001C0000E94F40180911601909117010E94830210
:1001D0009E01B9CF109215011092140181E061E0E7
:1001E0000E94F40187E091E00E94300281E061E02A
:1001F0000E94F40180910E0190910F010E948302F0
:1002000080911601909117010196909317018093A8
:1002100016018831910509F446C08931910550F4E1
:100220008631910521F18731910578F5459709F0DF
:1002300071C00CC08A31910509F44FC08A31910513
:1002400008F43EC04B9709F065C054C010921301EA
:100250001092120180910E0190910F0189559240E8
:1002600008F458C0109313010093120153C08091F9
:100270000E0190910F018955924008F44BC0809176
:10028000120190911301029641C080910E0190914C
:100290000F018955924008F43DC080911201909160
:1002A0001301049633C080910E0190910F0189557E
:1002B000924080F18091120190911301089626C01E
:1002C00080910E0190910F018955924018F1809113
:1002D0001201909113010A9619C080910E0190911C
:1002E0000F0189559240B0F0809112019091130155
:1002F00044960CC080910E0190910F018955924057
:1003000048F0809112019091130188969093130107
:10031000809312018BE060E00E94F4018BE091E099
:100320000E9430028BE060E00E94F4018091120193
:10033000909113010E94830220E030E004CF282F27
:10034000662311F05C9A01C05C985F988AB18F6057
:100350008AB99BB1907F822F82958F70892B8BB940
:100360005D9A00C05D982F70292B2BB95D9A00C053
:100370005D989F609BB90895882311F05C9A01C035
:100380005C985F9A8AB1807F8AB95D9A00C099B102
:100390005D9800C05D9A00C089B18F709295907F82
:1003A0005D98892B089580E00E94BC0187FDFBCFFA
:1003B00088E090E00197F1F780E00E94BC01089589
:1003C0001F93182F0E94D301812F60E00E949F018C
:1003D0001F9108951F93182F0E94D301812F61E070
:1003E0000E949F011F910895662311F4805809C04F
:1003F000613011F4805405C0623011F4805701C09F
:1004000080530E94E00108950E94D30190E0089576
:1004100081E00E94E001089582E00E94E0010895D9
:100420001F93182F0E94D301982F1A3099F480310E
:1004300010F480E40BC08054803110F480E106C0D9
:100440009051903310F080E001C080E580580E9408
:10045000E00104C0812F61E00E949F011F91089577
:10046000CF93DF93EC0102C00E9410028991882390
:10047000D9F7DF91CF910895CF93DF93EC0102C0BC
:100480000E941002FE01219684918823C9F7DF9112
:10049000CF9108951F93182F8AB18F608AB9549A0B
:1004A000579A559A80E09AEF0197F1F7599A589A1E
:1004B0005D9A00C05D9880E09EE40197F1F75D9A37
:1004C00000C05D9880E091E0FC013197F1F75D9A02
:1004D00000C05D98FC013197F1F758985D9A00C013
:1004E0005D980197F1F788E20E94E00188E00E94A0
:1004F000E0010E94080286E00E94E001812F0E9434
:10050000E0011F9108950F931F93DF93CF93CDB711
:10051000DEB764970FB6F894DEBF0FBECDBF8E0175
:100520000F5F1F4FB8014AE050E00E94C802C801A7
:100530000E94300264960FB6F894DEBF0FBECDBFA6
:10054000CF91DF911F910F9108950F931F93DF9328
:10055000CF93CDB7DEB728970FB6F894DEBF0FBEA6
:10056000CDBF90E08E010F5F1F4FB80148E050E013
:100570000E94C802C8010E94300228960FB6F89463
:10058000DEBF0FBECDBFCF91DF911F910F910895B8
:10059000FB019F01423074F0453264F4642F7727E9
:1005A0000E94EE02805D8A330CF0895D8193CB015D
:1005B0000097A1F71082C9010C94DE02DC01FC0156
:1005C000672F71917723E1F7329704C07C916D9387
:1005D00070836291AE17BF07C8F30895AA1BBB1BB7
:1005E00051E107C0AA1FBB1FA617B70710F0A61B33
:1005F000B70B881F991F5A95A9F780959095BC0154
:08060000CD010895F894FFCF2D
:1006080020202020003A0020202000202000010087
:020618000100DF
:00000001FF
