:100000000C9434000C9451000C9451000C94510049
:100010000C9451000C9451000C9451000C9451001C
:100020000C9451000C9451000C9451000C9451000C
:100030000C9451000C9451000C9451000C945100FC
:100040000C9453000C9451000C9451000C945100EA
:100050000C9451000C9451000C9451000C945100DC
:100060000C9451000C94510011241FBECFEFD8E026
:10007000DEBFCDBF11E0A0E0B1E0E2E9F4E002C0F4
:1000800005900D92AE30B107D9F711E0AEE0B1E0C6
:1000900001C01D92A231B107E1F70E947A000C94D1
:1000A00047020C9400001F920F920FB60F9211247A
:1000B0008F939F9316BC809110019091110101962E
:1000C0009093110180931001019769F4109211012E
:1000D000109210018091090190910A01019690936C
:1000E0000A01809309019F918F910F900FBE0F908D
:1000F0001F901895CF93DF938FE00E948F010E948D
:100100004D0117B818B814BC82E085BD80916E000F
:10011000816080936E00A89A789486B1C82FD0E051
:10012000C270D070C217D307C1F32097A9F180E045
:1001300062E00E94390180910F018F5F80930F016F
:10014000992787FD90950E94C80110920F0187E0C2
:1001500060E00E94390180910E0190E00E94C80188
:1001600089E060E00E94390180E091E00E94750121
:100170008AE060E00E94390180910B0190910C01AE
:100180000E94C80180910B0190910C0101969093FF
:100190000C0180930B010AC081E063E00E943901E9
:1001A0008091090190910A010E94C80110920A01F0
:1001B000109209018AE063E00E94390182E091E037
:1001C0000E9475019E01A9CF282F662311F05C9A29
:1001D00001C05C985F988AB18F608AB99BB1907FAB
:1001E000822F82958F70892B8BB95D9A00C05D98A4
:1001F0002F70292B2BB95D9A00C05D989F609BB929
:100200000895882311F05C9A01C05C985F9A8AB1C6
:10021000807F8AB95D9A00C099B15D9800C05D9AEF
:1002200000C089B18F709295907F5D98892B089559
:1002300080E00E94010187FDFBCF88E090E00197FC
:10024000F1F780E00E94010108951F93182F0E948A
:100250001801812F60E00E94E4001F9108951F9310
:10026000182F0E941801812F61E00E94E4001F9165
:100270000895662311F4805809C0613011F4805448
:1002800005C0623011F4805701C080530E942501DF
:1002900008950E94180190E0089581E00E942501D0
:1002A000089582E00E94250108951F93182F0E944F
:1002B0001801982F1A3099F4803110F480E40BC0A3
:1002C0008054803110F480E106C09051903310F0DA
:1002D00080E001C080E580580E94250104C0812F84
:1002E00061E00E94E4001F910895CF93DF93EC0139
:1002F00002C00E94550189918823D9F7DF91CF91DF
:100300000895CF93DF93EC0102C00E945501FE01D6
:10031000219684918823C9F7DF91CF9108951F9387
:10032000182F8AB18F608AB9549A579A559A80E0EB
:100330009AEF0197F1F7599A589A5D9A00C05D9823
:1003400080E09EE40197F1F75D9A00C05D9880E03F
:1003500091E0FC013197F1F75D9A00C05D98FC01D6
:100360003197F1F758985D9A00C05D980197F1F7C1
:1003700088E20E94250188E00E9425010E944D012B
:1003800086E00E942501812F0E9425011F9108957A
:100390000F931F93DF93CF93CDB7DEB764970FB65C
:1003A000F894DEBF0FBECDBF8E010F5F1F4FB801A7
:1003B0004AE050E00E940D02C8010E947501649657
:1003C0000FB6F894DEBF0FBECDBFCF91DF911F9166
:1003D0000F9108950F931F93DF93CF93CDB7DEB79F
:1003E00028970FB6F894DEBF0FBECDBF90E08E0108
:1003F0000F5F1F4FB80148E050E00E940D02C80196
:100400000E94750128960FB6F894DEBF0FBECDBFCF
:10041000CF91DF911F910F910895FB019F01423011
:1004200074F0453264F4642F77270E943302805DB4
:100430008A330CF0895D8193CB010097A1F710827C
:10044000C9010C942302DC01FC01672F7191772311
:10045000E1F7329704C07C916D9370836291AE177F
:10046000BF07C8F30895AA1BBB1B51E107C0AA1F11
:10047000BB1FA617B70710F0A61BB70B881F991F45
:100480005A95A9F780959095BC01CD010895F894EF
:02049000FFCF9C
:0E0492003A006E6F726D616C00010001000097
:00000001FF
