:100000000C9459000C9476000C9476000C947600B5
:100010000C9476000C9476000C9476000C94760088
:100020000C9476000C9476000C9476000C94760078
:100030000C9476000C9476000C9476000C94760068
:100040000C9478000C9476000C9476000C94760056
:100050000C9476000C9476000C9476000C94760048
:100060000C9476000C9476009E02AF02BD02CB0287
:10007000D902E702F502D30007031803260334036D
:1000800042035003D3006203730381038F039D0374
:10009000AB03BD03CE03DC03EE03FF030D041B041F
:1000A00029043B044C045A0468047604840476044E
:1000B000840411241FBECFEFD8E0DEBFCDBF11E016
:1000C000A0E0B1E0E6EFFBE002C005900D92A435A0
:1000D000B107D9F711E0A4E5B1E001C01D92A63641
:1000E000B107E1F70E94B1000C94F9050C940000EF
:1000F0001F920F920FB60F9211248F939F9316BCED
:1001000080916401909165010196909365018093BF
:1001100064010197F9F410926501109264018091D5
:100120004F019091500101969093500180934F019F
:1001300080915101909152010196909352018093C8
:100140005101809154019091550101969093550170
:10015000809354019F918F910F900FBE0F901F902D
:100160001895CF92DF92EF92FF920F931F93CF9348
:10017000DF938FE00E9441050E94FF0417B818B872
:1001800014BC82E085BD80916E00816080936E001A
:10019000A89A789401E010E098E0E92EF12C89E02B
:1001A000C82ED12C02C020E030E086B1C82FD0E0AC
:1001B000C270D070C217D307C1F3209709F4A3C14E
:1001C00080915401909155018157974108F453C192
:1001D0001093570100935601809158019091590155
:1001E0000A9750F48BE063E00E94EB0480E091E01A
:1001F0000E9427058CE009C08BE063E00E94EB04BD
:1002000080E091E00E9427058BE063E00E94EB0410
:1002100080915801909159010E947A0580915A016C
:1002200090915B010A9750F489E063E00E94EB042F
:1002300080E091E00E94270589E009C088E063E042
:100240000E94EB0480E091E00E94270588E063E0D3
:100250000E94EB0480915A0190915B010E947A0503
:1002600080915E0190915F010A9750F487E060E011
:100270000E94EB0480E091E00E94270587E009C01E
:1002800086E060E00E94EB0480E091E00E94270598
:1002900086E060E00E94EB0480915E0190915F0136
:1002A0000E947A0580916001909161010A9750F453
:1002B00089E060E00E94EB0480E091E00E94270565
:1002C0008AE009C089E060E00E94EB0480E091E0F0
:1002D0000E94270589E060E00E94EB0480916001A4
:1002E000909161010E947A0580915A0190915B0181
:1002F0000D9749F48091580190915901829719F412
:10030000449A459AFDCF8CE060E00E94EB0483E0C4
:1003100091E00E9427058EE060E00E94EB0480E0FF
:1003200091E00E9427058EE060E00E94EB0480913E
:100330006201909163010E947A0580915C01909125
:100340005D018430910509F44AC08530910554F46B
:100350008230910531F18330910594F5019709F0D0
:100360008AC010C08630910509F457C086309105C7
:100370000CF444C08730910509F45EC0089709F079
:100380007AC069C087E061E00E94EB0486E091E0FA
:100390000E94270587E061E00E94EB0480E191E084
:1003A00068C087E061E00E94EB0486E091E00E9473
:1003B000270587E061E00E94EB0487E191E059C0E6
:1003C00087E061E00E94EB0486E091E00E9427054F
:1003D00087E061E00E94EB048FE191E04AC087E092
:1003E00061E00E94EB0486E091E00E94270587E02F
:1003F00061E00E94EB0489E291E03BC087E061E0AC
:100400000E94EB0486E091E00E94270587E061E00E
:100410000E94EB0482E391E02CC087E061E00E943F
:10042000EB0486E091E00E94270587E061E00E94EE
:10043000EB0489E391E01DC087E061E00E94EB04DA
:1004400086E091E00E94270587E061E00E94EB04CE
:1004500082E491E00EC087E061E00E94EB0486E058
:1004600091E00E94270587E061E00E94EB0489E4A7
:1004700091E00E9427051092500110924F0188E0F0
:1004800060E00E94EB048BE491E00E9427058BE082
:1004900060E00E94EB048BE491E00E9427058DE070
:1004A00063E00E94EB048DE491E00E9427058AE05E
:1004B00063E00E94EB048DE491E00E9427058091A7
:1004C0005601909157010A9750F48EE063E00E9424
:1004D000EB0480E091E00E9427058FE009C08EE0E8
:1004E00063E00E94EB0480E091E00E9427058EE02B
:1004F00063E00E94EB0480915601909157010E94A5
:100500007A059E0152CE10925501109254018091AD
:10051000560190915701019690935701809356018F
:10052000FC017797E532F10508F03DCEEC5CFF4F1A
:10053000EE0FFF1F0590F491E02D099410925901E0
:100540001092580180914F0190915001895592402D
:1005500008F429CE109359010093580124CE8091BC
:100560004F01909150018955924008F41CCE809122
:10057000580190915901029645C080914F01909188
:1005800050018955924008F40ECE80915801909107
:100590005901049637C080914F01909150018955BF
:1005A000924008F400CE809158019091590108962C
:1005B00029C080914F01909150018955924008F4D3
:1005C000F2CD80915801909159010A961BC08091FB
:1005D0004F01909150018955924008F4E4CD8091EB
:1005E00058019091590144960DC080914F0190910E
:1005F00050018955924008F4D6CD809158019091D0
:10060000590188969093590180935801CCCD10924E
:100610005B0110925A0180914F01909150018955D0
:10062000924008F4C0CD10935B0100935A01BBCDFA
:1006300080914F01909150018955924008F4B3CDBB
:1006400080915A0190915B01029637C080914F01D1
:10065000909150018955924008F4A5CD80915A019E
:1006600090915B01049629C080914F0190915001B7
:100670008955924008F497CD80915A0190915B0181
:1006800008961BC080914F0190915001895592406E
:1006900008F489CD80915A0190915B010A960DC0B2
:1006A00080914F01909150018955924008F47BCD83
:1006B00080915A0190915B01449690935B018093E5
:1006C0005A0171CD10925F0110925E0180914F012D
:1006D000909150018955924008F465CD10935F01C7
:1006E00000935E0160CD80914F019091500189553A
:1006F000924008F458CD80915E0190915F0102967E
:1007000037C080914F01909150018955924008F473
:100710004ACD80915E0190915F01049629C080913D
:100720004F01909150018955924008F43CCD809141
:100730005E0190915F0108961BC080914F019091DE
:1007400050018955924008F42ECD80915E01909120
:100750005F010A960DC080914F019091500189551B
:10076000924008F420CD80915E0190915F01449603
:1007700090935F0180935E0116CDF0925D01E0924F
:100780005C0180914F01909150018955924008F48D
:100790000ACDD0925D01C0925C0105CD80914F01E0
:1007A000909150018955924008F4FDCC80915C01F4
:1007B00090915D0102960DC080914F019091500182
:1007C0008955924008F4EFCC80915C0190915D01D5
:1007D000049690935D0180935C01E5CC10926101D9
:1007E0001092600180914F01909150018955924083
:1007F00008F4D9CC1093610100936001D4CC8091AE
:100800004F01909150018955924008F4CCCC8091D1
:10081000600190916101029629C080914F019091F1
:1008200050018955924008F4BECC809160019091AE
:10083000610104961BC080914F0190915001895530
:10084000924008F4B0CC80916001909161010896CB
:100850000DC080914F01909150018955924008F44C
:10086000A2CC80916001909161010A969093610100
:100870008093600198CC1092630110926201809184
:100880004F01909150018955924008F48CCC1093FF
:1008900063010093620187CC80914F0190915001D8
:1008A0008955924008F47FCC809162019091630158
:1008B000029637C080914F01909150018955924026
:1008C00008F471CC8091620190916301049629C073
:1008D00080914F01909150018955924008F463CC6A
:1008E000809162019091630108961BC080914F0135
:1008F000909150018955924008F455CC8091620145
:10090000909163010A960DC080914F019091500122
:100910008955924008F447CC80916201909163011F
:10092000449690936301809362013DCC282F662307
:1009300011F05C9A01C05C985F988AB18F608AB9A7
:100940009BB1907F822F82958F70892B8BB95D9A96
:1009500000C05D982F70292B2BB95D9A00C05D985F
:100960009F609BB90895882311F05C9A01C05C9840
:100970005F9A8AB1807F8AB95D9A00C099B15D980B
:1009800000C05D9A00C089B18F709295907F5D988C
:10099000892B089580E00E94B30487FDFBCF88E097
:1009A00090E00197F1F780E00E94B30408951F934F
:1009B000182F0E94CA04812F60E00E9496041F91A4
:1009C00008951F93182F0E94CA04812F61E00E948E
:1009D00096041F910895662311F4805809C0613070
:1009E00011F4805405C0623011F4805701C0805367
:1009F0000E94D70408950E94CA0490E0089581E0FF
:100A00000E94D704089582E00E94D70408951F939E
:100A1000182F0E94CA04982F1A3099F4803110F4CC
:100A200080E40BC08054803110F480E106C0905106
:100A3000903310F080E001C080E580580E94D70418
:100A400004C0812F61E00E9496041F910895CF9306
:100A5000DF93EC0102C00E94070589918823D9F732
:100A6000DF91CF910895CF93DF93EC0102C00E94F4
:100A70000705FE01219684918823C9F7DF91CF9164
:100A800008951F93182F8AB18F608AB9549A579A84
:100A9000559A80E09AEF0197F1F7599A589A5D9A22
:100AA00000C05D9880E09EE40197F1F75D9A00C078
:100AB0005D9880E091E0FC013197F1F75D9A00C00C
:100AC0005D98FC013197F1F758985D9A00C05D98E8
:100AD0000197F1F788E20E94D70488E00E94D704CA
:100AE0000E94FF0486E00E94D704812F0E94D70451
:100AF0001F9108950F931F93DF93CF93CDB7DEB768
:100B000064970FB6F894DEBF0FBECDBF8E010F5FA6
:100B10001F4FB8014AE050E00E94BF05C8010E9483
:100B2000270564960FB6F894DEBF0FBECDBFCF91F8
:100B3000DF911F910F9108950F931F93DF93CF9330
:100B4000CDB7DEB728970FB6F894DEBF0FBECDBF86
:100B500090E08E010F5F1F4FB80148E050E00E9407
:100B6000BF05C8010E94270528960FB6F894DEBF7E
:100B70000FBECDBFCF91DF911F910F910895FB0163
:100B80009F01423074F0453264F4642F77270E944D
:100B9000E505805D8A330CF0895D8193CB01009778
:100BA000A1F71082C9010C94D505DC01FC01672F67
:100BB00071917723E1F7329704C07C916D93708334
:100BC0006291AE17BF07C8F30895AA1BBB1B51E182
:100BD00007C0AA1FBB1FA617B70710F0A61BB70BAD
:100BE000881F991F5A95A9F780959095BC01CD0152
:060BF0000895F894FFCF08
:100BF600202000323000202020202020202020002D
:100C06004D4F4E44415900545545534441590057A0
:100C160045444E4553444159005448555253444166
:100C26005900465249444159005341545552444192
:100C3600590053554E4441590030002E003A0001E8
:040C460000010000A9
:00000001FF
